S02500002E2F44656275672F666C6970666C6F705F6972715F7665636B746F7265642E7331392F
S315200000000248854600F0C6F8FEE7C04600C001203B
S3152000001080F314887047C046180080B500AF0E4B99
S315200000201B889BB21A000123134011D00B4B1B686F
S315200000305A1C0A4B1A60084B1B889BB21A000223D3
S31520000040134005D0044B1A68034B01210A431A605A
S31520000050C046BD4680BDC046143C0140B0010020CC
S3152000006080B500AF0C4B1B889BB21A0002231340AD
S315200000700FD00A4B00221A60074B1B889BB21A002E
S315200000800223134005D0044B1A68034B02210A436E
S315200000901A60C046BD4680BD143C0140B001002018
S315200000A080B500AF104B1B889BB21A000423134067
S315200000B017D00E4B1B68002B03D10C4BFF221A6066
S315200000C002E00A4B00221A60074B1B889BB21A00DB
S315200000D00423134005D0044B1A68034B04210A431A
S315200000E01A60C046BD4680BD143C0140B0010020C8
S315200000F080B500AF194B1A4A1A801A4B1A68194B49
S31520000100FF218A431A60174B1A68164B16490A4371
S315200001101A60164B1A68154B07210A431A60144BAE
S315200001201A68134B07210A431A60124B1A68114B9F
S3152000013007218A431A60104B104A1A60104B114A45
S315200001401A60114B114A1A60114B1A68104BE021A4
S3152000015049000A431A60C046BD4680BD000C0240D5
S31520000160555500000838014044040000003C014079
S31520000170083C01400C3C014060C00120A100002049
S315200001805CC001206100002058C001201B00002017
S3152000019000E100E080B500AFFFF7AAFF024B1A6826
S315200001A0024BD2B21A70F9E7B0010020140C0240BB
S309200001B00000000025
S70520000000DA
