S02500002E2F44656275672F666C6970666C6F705F6972715F7665636B746F7265642E7331392F
S315200000000248854600F0EEF8FEE7C04600C0012013
S3152000001080F314887047C046180080B500AF124B95
S315200000201B889BB21A00012313401AD00F4B1B6862
S315200000305A1C0E4B1A600C4B1A680B4B01210A43B3
S315200000401A600B4B1B78DBB2094A10210B43DBB23B
S315200000501370074B1B78DBB2054A10218B43DBB2AA
S315200000601370C046BD4680BD143C014000020020EE
S315200000701410024080B500AF114B1B889BB21A00AA
S315200000800223134018D00F4B00221A600C4B1A681B
S315200000900B4B02210A431A600B4B1B78DBB20A4A30
S315200000A020210B43DBB21370074B1B78DBB2064AC9
S315200000B020218B43DBB21370C046BD4680BDC046AF
S315200000C0143C0140000200201410024080B500AF0D
S315200000D0154B1B889BB21A000423134020D0134BC8
S315200000E01B68002B03D1114BFF221A6002E00F4B35
S315200000F000221A600C4B1A680B4B04210A431A6023
S315200001000B4B1B78DBB20A4A40210B43DBB2137040
S31520000110074B1B78DBB2064A40218B43DBB21370B8
S31520000120C046BD4680BDC046143C014000020020AA
S315200001301410024080B500AF1B4BAA22D2011A60D0
S315200001401A4B1B4A1A801B4B1A681A4BFF218A43EB
S315200001501A60184B1A68174B17490A431A60174B2F
S315200001601A68164B07210A431A60154B1A68144B56
S3152000017007210A431A60134B1A68124B07218A4338
S315200001801A60114B114A1A60114B124A1A60124B0F
S31520000190124A1A60124B1A68114BE02149000A4391
S315200001A01A60C046BD4680BD00100240000C0240C9
S315200001B0555500000838014044040000003C014029
S315200001C0083C01400C3C014060C00120CD000020CD
S315200001D05CC001207500002058C001201B000020B3
S315200001E000E100E080B500AFFFF7A4FF024B1A68DC
S315200001F0024BD2B21A70F9E700020020140C02401A
S3092000020000000000D4
S70520000000DA
