S018000044656275672F7379737469636B5F6972712E73313911
S315200000000248854600F06AF8FEE7C04600C0012097
S3152000001080F314887047C046180080B500AF044BA3
S31520000020044A1A60044B054A1A60C046BD4680BD84
S31520000030000C0240555555553CC00120410000207A
S3152000004080B500AF0A4B00221A600A4B1B685A1E65
S31520000050084B1A60074B1B68002B02DD00F00EF8D8
S3152000006002E0054B01221A60C046BD4680BDC0464F
S3152000007010E000E0300100202C01002080B500AF08
S31520000080074B00221A60074BA7221A60064B002254
S315200000901A60034B07221A60C046BD4680BDC04683
S315200000A010E000E014E000E018E000E080B582B047
S315200000B000AF78607B68002B08D07A68054B1A6001
S315200000C0054B00221A60FFF7D9FF00E0C046BD4667
S315200000D002B080BD300100202C01002080B582B006
S315200000E000AFFFF79AFFFA239B001800FFF7DEFF09
S315200000F00B4BFF221A7001237B600A4B1B68002BD7
S3152000010006D17B685A1C7A60074ADBB21370F4E783
S31520000110C046034B00221A70C046BD4602B080BDC1
S31520000120140C02402C010020150C02400000000097
S3092000013000000000A5
S70520000000DA
